{
  "address": "0x94987cc3d13f0ee8FbCf77c92A29F6638b046963",
  "abi": [
    {
      "inputs": [
        {
          "internalType": "address",
          "name": "_owner",
          "type": "address"
        }
      ],
      "stateMutability": "nonpayable",
      "type": "constructor"
    },
    {
      "anonymous": false,
      "inputs": [
        {
          "indexed": true,
          "internalType": "uint256",
          "name": "id",
          "type": "uint256"
        },
        {
          "indexed": false,
          "internalType": "string",
          "name": "phoneNumber",
          "type": "string"
        },
        {
          "indexed": false,
          "internalType": "string",
          "name": "baseName",
          "type": "string"
        },
        {
          "indexed": false,
          "internalType": "string",
          "name": "baseAddress",
          "type": "string"
        }
      ],
      "name": "BaseDetailsLogged",
      "type": "event"
    },
    {
      "anonymous": false,
      "inputs": [
        {
          "indexed": false,
          "internalType": "uint256",
          "name": "employeeId",
          "type": "uint256"
        },
        {
          "indexed": false,
          "internalType": "string",
          "name": "employeeName",
          "type": "string"
        },
        {
          "indexed": false,
          "internalType": "string",
          "name": "employeePosition",
          "type": "string"
        }
      ],
      "name": "EmployeeAdded",
      "type": "event"
    },
    {
      "anonymous": false,
      "inputs": [
        {
          "indexed": true,
          "internalType": "address",
          "name": "greetingSetter",
          "type": "address"
        },
        {
          "indexed": false,
          "internalType": "string",
          "name": "newGreeting",
          "type": "string"
        },
        {
          "indexed": false,
          "internalType": "bool",
          "name": "premium",
          "type": "bool"
        },
        {
          "indexed": false,
          "internalType": "uint256",
          "name": "value",
          "type": "uint256"
        }
      ],
      "name": "GreetingChange",
      "type": "event"
    },
    {
      "anonymous": false,
      "inputs": [
        {
          "indexed": true,
          "internalType": "uint256",
          "name": "transactionId",
          "type": "uint256"
        },
        {
          "indexed": false,
          "internalType": "address",
          "name": "from",
          "type": "address"
        },
        {
          "indexed": false,
          "internalType": "address",
          "name": "to",
          "type": "address"
        },
        {
          "indexed": false,
          "internalType": "uint256",
          "name": "amount",
          "type": "uint256"
        },
        {
          "indexed": false,
          "internalType": "uint256",
          "name": "timestamp",
          "type": "uint256"
        }
      ],
      "name": "TransactionLogged",
      "type": "event"
    },
    {
      "inputs": [
        {
          "internalType": "uint256",
          "name": "_employeeId",
          "type": "uint256"
        },
        {
          "internalType": "string",
          "name": "_employeeName",
          "type": "string"
        },
        {
          "internalType": "string",
          "name": "_employeePosition",
          "type": "string"
        }
      ],
      "name": "addEmployee",
      "outputs": [],
      "stateMutability": "nonpayable",
      "type": "function"
    },
    {
      "inputs": [
        {
          "internalType": "uint256",
          "name": "_id",
          "type": "uint256"
        }
      ],
      "name": "getBaseDetails",
      "outputs": [
        {
          "internalType": "uint256",
          "name": "",
          "type": "uint256"
        },
        {
          "internalType": "string",
          "name": "",
          "type": "string"
        },
        {
          "internalType": "string",
          "name": "",
          "type": "string"
        },
        {
          "internalType": "string",
          "name": "",
          "type": "string"
        }
      ],
      "stateMutability": "view",
      "type": "function"
    },
    {
      "inputs": [
        {
          "internalType": "uint256",
          "name": "_employeeId",
          "type": "uint256"
        }
      ],
      "name": "getEmployee",
      "outputs": [
        {
          "internalType": "uint256",
          "name": "",
          "type": "uint256"
        },
        {
          "internalType": "string",
          "name": "",
          "type": "string"
        },
        {
          "internalType": "string",
          "name": "",
          "type": "string"
        }
      ],
      "stateMutability": "view",
      "type": "function"
    },
    {
      "inputs": [
        {
          "internalType": "uint256",
          "name": "_transactionId",
          "type": "uint256"
        }
      ],
      "name": "getTransaction",
      "outputs": [
        {
          "internalType": "uint256",
          "name": "",
          "type": "uint256"
        },
        {
          "internalType": "address",
          "name": "",
          "type": "address"
        },
        {
          "internalType": "address",
          "name": "",
          "type": "address"
        },
        {
          "internalType": "uint256",
          "name": "",
          "type": "uint256"
        },
        {
          "internalType": "uint256",
          "name": "",
          "type": "uint256"
        }
      ],
      "stateMutability": "view",
      "type": "function"
    },
    {
      "inputs": [],
      "name": "greeting",
      "outputs": [
        {
          "internalType": "string",
          "name": "",
          "type": "string"
        }
      ],
      "stateMutability": "view",
      "type": "function"
    },
    {
      "inputs": [
        {
          "internalType": "uint256",
          "name": "_id",
          "type": "uint256"
        },
        {
          "internalType": "string",
          "name": "_phoneNumber",
          "type": "string"
        },
        {
          "internalType": "string",
          "name": "_baseName",
          "type": "string"
        },
        {
          "internalType": "string",
          "name": "_baseAddress",
          "type": "string"
        }
      ],
      "name": "logBaseDetails",
      "outputs": [],
      "stateMutability": "nonpayable",
      "type": "function"
    },
    {
      "inputs": [
        {
          "internalType": "uint256",
          "name": "_transactionId",
          "type": "uint256"
        },
        {
          "internalType": "address",
          "name": "_from",
          "type": "address"
        },
        {
          "internalType": "address",
          "name": "_to",
          "type": "address"
        },
        {
          "internalType": "uint256",
          "name": "_amount",
          "type": "uint256"
        }
      ],
      "name": "logTransaction",
      "outputs": [],
      "stateMutability": "nonpayable",
      "type": "function"
    },
    {
      "inputs": [],
      "name": "owner",
      "outputs": [
        {
          "internalType": "address",
          "name": "",
          "type": "address"
        }
      ],
      "stateMutability": "view",
      "type": "function"
    },
    {
      "inputs": [],
      "name": "premium",
      "outputs": [
        {
          "internalType": "bool",
          "name": "",
          "type": "bool"
        }
      ],
      "stateMutability": "view",
      "type": "function"
    },
    {
      "inputs": [
        {
          "internalType": "string",
          "name": "_newGreeting",
          "type": "string"
        }
      ],
      "name": "setGreeting",
      "outputs": [],
      "stateMutability": "payable",
      "type": "function"
    },
    {
      "inputs": [],
      "name": "totalCounter",
      "outputs": [
        {
          "internalType": "uint256",
          "name": "",
          "type": "uint256"
        }
      ],
      "stateMutability": "view",
      "type": "function"
    },
    {
      "inputs": [
        {
          "internalType": "address",
          "name": "",
          "type": "address"
        }
      ],
      "name": "userGreetingCounter",
      "outputs": [
        {
          "internalType": "uint256",
          "name": "",
          "type": "uint256"
        }
      ],
      "stateMutability": "view",
      "type": "function"
    },
    {
      "inputs": [],
      "name": "withdraw",
      "outputs": [],
      "stateMutability": "nonpayable",
      "type": "function"
    },
    {
      "stateMutability": "payable",
      "type": "receive"
    }
  ],
  "transactionHash": "0x89586a2932dd6837396b25a868100fbf02b88540f76f6eeb597606d6d6698da5",
  "args": [
    "0x9c42e98bDCE1f7D384e91231A2cD8F064E2D3e81"
  ],
  "numDeployments": 2,
  "solcInputHash": "7ed2bbb7eb88ff03c8d2f02d4eb35b7f",
  "bytecode": "0x60e0604052601360a09081527f57656c636f6d6520746f204d515220506179210000000000000000000000000060c0526000906200003e908262000135565b506001805460ff1916905560006002553480156200005b57600080fd5b506040516200138f3803806200138f8339810160408190526200007e9162000201565b6001600160a01b031660805262000233565b634e487b7160e01b600052604160045260246000fd5b600181811c90821680620000bb57607f821691505b602082108103620000dc57634e487b7160e01b600052602260045260246000fd5b50919050565b601f8211156200013057600081815260208120601f850160051c810160208610156200010b5750805b601f850160051c820191505b818110156200012c5782815560010162000117565b5050505b505050565b81516001600160401b0381111562000151576200015162000090565b6200016981620001628454620000a6565b84620000e2565b602080601f831160018114620001a15760008415620001885750858301515b600019600386901b1c1916600185901b1785556200012c565b600085815260208120601f198616915b82811015620001d257888601518255948401946001909101908401620001b1565b5085821015620001f15787850151600019600388901b60f8161c191681555b5050505050600190811b01905550565b6000602082840312156200021457600080fd5b81516001600160a01b03811681146200022c57600080fd5b9392505050565b60805161112b62000264600039600081816102200152818161041b015281816105210152610582015261112b6000f3fe6080604052600436106100c65760003560e01c806397feba9d1161007f578063cea49c3c11610059578063cea49c3c146102c0578063d7de759b146102ed578063e0a73a931461030d578063ef690cc01461033757600080fd5b806397feba9d1461025a578063a41368621461027e578063bca9a5c51461029157600080fd5b80631673fe02146100d25780631fbdb29e146100f457806333ea3dc8146101145780633ccfd60b146101c9578063823b5e64146101de5780638da5cb5b1461020e57600080fd5b366100cd57005b600080fd5b3480156100de57600080fd5b506100f26100ed366004610c78565b610359565b005b34801561010057600080fd5b506100f261010f366004610d0a565b610410565b34801561012057600080fd5b5061019061012f366004610d77565b600090815260066020908152604091829020825160a081018452815480825260018301546001600160a01b03908116948301859052600284015416948201859052600383015460608301819052600490930154608090920182905294929392565b604080519586526001600160a01b03948516602087015292909316918401919091526060830152608082015260a0015b60405180910390f35b3480156101d557600080fd5b506100f2610516565b3480156101ea57600080fd5b506101fe6101f9366004610d77565b61063b565b6040516101c09493929190610dd6565b34801561021a57600080fd5b506102427f000000000000000000000000000000000000000000000000000000000000000081565b6040516001600160a01b0390911681526020016101c0565b34801561026657600080fd5b5061027060025481565b6040519081526020016101c0565b6100f261028c366004610e20565b610846565b34801561029d57600080fd5b506102b16102ac366004610d77565b6108f4565b6040516101c093929190610e5d565b3480156102cc57600080fd5b506102706102db366004610eae565b60036020526000908152604090205481565b3480156102f957600080fd5b506100f2610308366004610ed0565b610a63565b34801561031957600080fd5b506001546103279060ff1681565b60405190151581526020016101c0565b34801561034357600080fd5b5061034c610b47565b6040516101c09190610f14565b604080516080810182528581526020808201868152828401869052606083018590526000888152600490925292902081518155915190919060018201906103a09082610fb0565b50604082015160028201906103b59082610fb0565b50606082015160038201906103ca9082610fb0565b50905050837f06454edc9f34f1f367064324aa76267e7e3c76e2b1ec1feeac1741197756185584848460405161040293929190611070565b60405180910390a250505050565b336001600160a01b037f0000000000000000000000000000000000000000000000000000000000000000161461047d5760405162461bcd60e51b815260206004820152600d60248201526c2737ba103a34329027bbb732b960991b60448201526064015b60405180910390fd5b6040805160608101825284815260208082018581528284018590526000878152600590925292902081518155915190919060018201906104bd9082610fb0565b50604082015160028201906104d29082610fb0565b509050507fb2012c7133ec1e77e2ec17235a36b46de28c9ad753dbcc25417f4bc7e7c94fc383838360405161050993929190610e5d565b60405180910390a1505050565b336001600160a01b037f0000000000000000000000000000000000000000000000000000000000000000161461057e5760405162461bcd60e51b815260206004820152600d60248201526c2737ba103a34329027bbb732b960991b6044820152606401610474565b60007f00000000000000000000000000000000000000000000000000000000000000006001600160a01b03164760405160006040518083038185875af1925050503d80600081146105eb576040519150601f19603f3d011682016040523d82523d6000602084013e6105f0565b606091505b50509050806106385760405162461bcd60e51b81526020600482015260146024820152732330b4b632b2103a379039b2b7321022ba3432b960611b6044820152606401610474565b50565b600060608060606000600460008781526020019081526020016000206040518060800160405290816000820154815260200160018201805461067c90610f27565b80601f01602080910402602001604051908101604052809291908181526020018280546106a890610f27565b80156106f55780601f106106ca576101008083540402835291602001916106f5565b820191906000526020600020905b8154815290600101906020018083116106d857829003601f168201915b5050505050815260200160028201805461070e90610f27565b80601f016020809104026020016040519081016040528092919081815260200182805461073a90610f27565b80156107875780601f1061075c57610100808354040283529160200191610787565b820191906000526020600020905b81548152906001019060200180831161076a57829003601f168201915b505050505081526020016003820180546107a090610f27565b80601f01602080910402602001604051908101604052809291908181526020018280546107cc90610f27565b80156108195780601f106107ee57610100808354040283529160200191610819565b820191906000526020600020905b8154815290600101906020018083116107fc57829003601f168201915b505050919092525050815160208301516040840151606090940151919a9099509297509550909350505050565b60006108528282610fb0565b5060016002600082825461086691906110a9565b909155505033600090815260036020526040812080546001929061088b9084906110a9565b909155505034156108a7576001805460ff1916811790556108b2565b6001805460ff191690555b60405133907f94cbd7e04dca26a7667654f6448b2ca0a40fec602118dc5fd8c82b9cf3c645ad906108e990849034801515916110d0565b60405180910390a250565b60006060806000600560008681526020019081526020016000206040518060600160405290816000820154815260200160018201805461093390610f27565b80601f016020809104026020016040519081016040528092919081815260200182805461095f90610f27565b80156109ac5780601f10610981576101008083540402835291602001916109ac565b820191906000526020600020905b81548152906001019060200180831161098f57829003601f168201915b505050505081526020016002820180546109c590610f27565b80601f01602080910402602001604051908101604052809291908181526020018280546109f190610f27565b8015610a3e5780601f10610a1357610100808354040283529160200191610a3e565b820191906000526020600020905b815481529060010190602001808311610a2157829003601f168201915b5050509190925250508151602083015160409093015190989297509550909350505050565b6040805160a0810182528581526001600160a01b03808616602080840191825286831684860190815260608501878152426080870181815260008d81526006909552938890209651875593516001870180549187166001600160a01b0319928316179055915160028701805491909616921691909117909355915160038401559051600490920191909155905185917ff16c8b4b775ddbf8b17fc3721726a9b935c24a176cd1e326986d17b0b2b88e9c91610402918791879187916001600160a01b0394851681529290931660208301526040820152606081019190915260800190565b60008054610b5490610f27565b80601f0160208091040260200160405190810160405280929190818152602001828054610b8090610f27565b8015610bcd5780601f10610ba257610100808354040283529160200191610bcd565b820191906000526020600020905b815481529060010190602001808311610bb057829003601f168201915b505050505081565b634e487b7160e01b600052604160045260246000fd5b600082601f830112610bfc57600080fd5b813567ffffffffffffffff80821115610c1757610c17610bd5565b604051601f8301601f19908116603f01168101908282118183101715610c3f57610c3f610bd5565b81604052838152866020858801011115610c5857600080fd5b836020870160208301376000602085830101528094505050505092915050565b60008060008060808587031215610c8e57600080fd5b84359350602085013567ffffffffffffffff80821115610cad57600080fd5b610cb988838901610beb565b94506040870135915080821115610ccf57600080fd5b610cdb88838901610beb565b93506060870135915080821115610cf157600080fd5b50610cfe87828801610beb565b91505092959194509250565b600080600060608486031215610d1f57600080fd5b83359250602084013567ffffffffffffffff80821115610d3e57600080fd5b610d4a87838801610beb565b93506040860135915080821115610d6057600080fd5b50610d6d86828701610beb565b9150509250925092565b600060208284031215610d8957600080fd5b5035919050565b6000815180845260005b81811015610db657602081850181015186830182015201610d9a565b506000602082860101526020601f19601f83011685010191505092915050565b848152608060208201526000610def6080830186610d90565b8281036040840152610e018186610d90565b90508281036060840152610e158185610d90565b979650505050505050565b600060208284031215610e3257600080fd5b813567ffffffffffffffff811115610e4957600080fd5b610e5584828501610beb565b949350505050565b838152606060208201526000610e766060830185610d90565b8281036040840152610e888185610d90565b9695505050505050565b80356001600160a01b0381168114610ea957600080fd5b919050565b600060208284031215610ec057600080fd5b610ec982610e92565b9392505050565b60008060008060808587031215610ee657600080fd5b84359350610ef660208601610e92565b9250610f0460408601610e92565b9396929550929360600135925050565b602081526000610ec96020830184610d90565b600181811c90821680610f3b57607f821691505b602082108103610f5b57634e487b7160e01b600052602260045260246000fd5b50919050565b601f821115610fab57600081815260208120601f850160051c81016020861015610f885750805b601f850160051c820191505b81811015610fa757828155600101610f94565b5050505b505050565b815167ffffffffffffffff811115610fca57610fca610bd5565b610fde81610fd88454610f27565b84610f61565b602080601f8311600181146110135760008415610ffb5750858301515b600019600386901b1c1916600185901b178555610fa7565b600085815260208120601f198616915b8281101561104257888601518255948401946001909101908401611023565b50858210156110605787850151600019600388901b60f8161c191681555b5050505050600190811b01905550565b6060815260006110836060830186610d90565b82810360208401526110958186610d90565b90508281036040840152610e888185610d90565b808201808211156110ca57634e487b7160e01b600052601160045260246000fd5b92915050565b6060815260006110e36060830186610d90565b9315156020830152506040015291905056fea2646970667358221220b1e3f08e226035b0cfa5e1b2a37b34e7e62e623377a062155eccc19d69f80d7b64736f6c63430008140033",
  "devdoc": {
    "author": "EmmanuelHaggai",
    "kind": "dev",
    "methods": {},
    "version": 1
  },
  "userdoc": {
    "kind": "user",
    "methods": {},
    "notice": "A smart contract that enables ksh to base eth onramping. It also allows the owner to withdraw the Ether in the contract Additionally, it has the functionality to log user details and retrieve them using a unique id.",
    "version": 1
  },
  "storageLayout": {
    "storage": [
      {
        "astId": 7,
        "contract": "contracts/YourContract.sol:YourContract",
        "label": "greeting",
        "offset": 0,
        "slot": "0",
        "type": "t_string_storage"
      },
      {
        "astId": 10,
        "contract": "contracts/YourContract.sol:YourContract",
        "label": "premium",
        "offset": 0,
        "slot": "1",
        "type": "t_bool"
      },
      {
        "astId": 13,
        "contract": "contracts/YourContract.sol:YourContract",
        "label": "totalCounter",
        "offset": 0,
        "slot": "2",
        "type": "t_uint256"
      },
      {
        "astId": 17,
        "contract": "contracts/YourContract.sol:YourContract",
        "label": "userGreetingCounter",
        "offset": 0,
        "slot": "3",
        "type": "t_mapping(t_address,t_uint256)"
      },
      {
        "astId": 49,
        "contract": "contracts/YourContract.sol:YourContract",
        "label": "baseDetailsMap",
        "offset": 0,
        "slot": "4",
        "type": "t_mapping(t_uint256,t_struct(BaseDetails)26_storage)"
      },
      {
        "astId": 54,
        "contract": "contracts/YourContract.sol:YourContract",
        "label": "employees",
        "offset": 0,
        "slot": "5",
        "type": "t_mapping(t_uint256,t_struct(Employee)33_storage)"
      },
      {
        "astId": 59,
        "contract": "contracts/YourContract.sol:YourContract",
        "label": "transactions",
        "offset": 0,
        "slot": "6",
        "type": "t_mapping(t_uint256,t_struct(Transaction)44_storage)"
      }
    ],
    "types": {
      "t_address": {
        "encoding": "inplace",
        "label": "address",
        "numberOfBytes": "20"
      },
      "t_bool": {
        "encoding": "inplace",
        "label": "bool",
        "numberOfBytes": "1"
      },
      "t_mapping(t_address,t_uint256)": {
        "encoding": "mapping",
        "key": "t_address",
        "label": "mapping(address => uint256)",
        "numberOfBytes": "32",
        "value": "t_uint256"
      },
      "t_mapping(t_uint256,t_struct(BaseDetails)26_storage)": {
        "encoding": "mapping",
        "key": "t_uint256",
        "label": "mapping(uint256 => struct YourContract.BaseDetails)",
        "numberOfBytes": "32",
        "value": "t_struct(BaseDetails)26_storage"
      },
      "t_mapping(t_uint256,t_struct(Employee)33_storage)": {
        "encoding": "mapping",
        "key": "t_uint256",
        "label": "mapping(uint256 => struct YourContract.Employee)",
        "numberOfBytes": "32",
        "value": "t_struct(Employee)33_storage"
      },
      "t_mapping(t_uint256,t_struct(Transaction)44_storage)": {
        "encoding": "mapping",
        "key": "t_uint256",
        "label": "mapping(uint256 => struct YourContract.Transaction)",
        "numberOfBytes": "32",
        "value": "t_struct(Transaction)44_storage"
      },
      "t_string_storage": {
        "encoding": "bytes",
        "label": "string",
        "numberOfBytes": "32"
      },
      "t_struct(BaseDetails)26_storage": {
        "encoding": "inplace",
        "label": "struct YourContract.BaseDetails",
        "members": [
          {
            "astId": 19,
            "contract": "contracts/YourContract.sol:YourContract",
            "label": "id",
            "offset": 0,
            "slot": "0",
            "type": "t_uint256"
          },
          {
            "astId": 21,
            "contract": "contracts/YourContract.sol:YourContract",
            "label": "phoneNumber",
            "offset": 0,
            "slot": "1",
            "type": "t_string_storage"
          },
          {
            "astId": 23,
            "contract": "contracts/YourContract.sol:YourContract",
            "label": "baseName",
            "offset": 0,
            "slot": "2",
            "type": "t_string_storage"
          },
          {
            "astId": 25,
            "contract": "contracts/YourContract.sol:YourContract",
            "label": "baseAddress",
            "offset": 0,
            "slot": "3",
            "type": "t_string_storage"
          }
        ],
        "numberOfBytes": "128"
      },
      "t_struct(Employee)33_storage": {
        "encoding": "inplace",
        "label": "struct YourContract.Employee",
        "members": [
          {
            "astId": 28,
            "contract": "contracts/YourContract.sol:YourContract",
            "label": "employeeId",
            "offset": 0,
            "slot": "0",
            "type": "t_uint256"
          },
          {
            "astId": 30,
            "contract": "contracts/YourContract.sol:YourContract",
            "label": "employeeName",
            "offset": 0,
            "slot": "1",
            "type": "t_string_storage"
          },
          {
            "astId": 32,
            "contract": "contracts/YourContract.sol:YourContract",
            "label": "employeePosition",
            "offset": 0,
            "slot": "2",
            "type": "t_string_storage"
          }
        ],
        "numberOfBytes": "96"
      },
      "t_struct(Transaction)44_storage": {
        "encoding": "inplace",
        "label": "struct YourContract.Transaction",
        "members": [
          {
            "astId": 35,
            "contract": "contracts/YourContract.sol:YourContract",
            "label": "transactionId",
            "offset": 0,
            "slot": "0",
            "type": "t_uint256"
          },
          {
            "astId": 37,
            "contract": "contracts/YourContract.sol:YourContract",
            "label": "from",
            "offset": 0,
            "slot": "1",
            "type": "t_address"
          },
          {
            "astId": 39,
            "contract": "contracts/YourContract.sol:YourContract",
            "label": "to",
            "offset": 0,
            "slot": "2",
            "type": "t_address"
          },
          {
            "astId": 41,
            "contract": "contracts/YourContract.sol:YourContract",
            "label": "amount",
            "offset": 0,
            "slot": "3",
            "type": "t_uint256"
          },
          {
            "astId": 43,
            "contract": "contracts/YourContract.sol:YourContract",
            "label": "timestamp",
            "offset": 0,
            "slot": "4",
            "type": "t_uint256"
          }
        ],
        "numberOfBytes": "160"
      },
      "t_uint256": {
        "encoding": "inplace",
        "label": "uint256",
        "numberOfBytes": "32"
      }
    }
  }
}